S01500004C61622039204143202B2049432E737265630C
S11300000C94B1000C94CE000C94CE000C94CE0051
S11300100C94CE000C94CE000C94CE000C94CE0024
S11300200C94CE000C94CE000C94E9000C94CE00F9
S11300300C94CE000C94D0000C94CE000C94CE0002
S11300400C94CE000C94CE000C94CE000C94CE00F4
S11300500C94CE000C94CE000C94CE000C94CE00E4
S11300600C94CE000C94CE0000407A10F35A00A0F9
S1130070724E18090010A5D4E80000E8764817006D
S113008000E40B54020000CA9A3B000000E1F505AD
S1130090000080969800000040420F000000A086F7
S11300A001000000102700000000E8030000000029
S11300B06400000000000A000000000001000000CD
S11300C000002C76D888DC674F0823DFC1DFAE59E7
S11300D0E1B1B796E5E3E453C63AE651997696E87A
S11300E0E6C28426EB898C9B62ED407C6FFCEFBCFE
S11300F09C9F40F2BAA56FA5F490055A2AF75C9329
S11301006B6CF9676DC11BFCE0E40D47FEF520E65E
S1130110B500D0ED902E0300943577050080841E41
S1130120080000204E0A000000C80C333333330F9C
S1130130986E12831141EF8D2114893BE65516CF39
S1130140FEE6DB18D1844B381BF77C1D901DA4BB45
S1130150E424203284725E228100C9F124ECA1E5FA
S11301603D2711241FBECFEFD8E0DEBFCDBF11E085
S1130170A0E0B1E0E6E8F1E102C005900D92A630FE
S1130180B107D9F721E0A6E0B1E001C01D92AD317D
S1130190B207E1F70E94DB020C94C1080C94000042
S11301A01F920F920FB60F9211248F939F93F8947E
S11301B080911B0190911C01019690931C018093E6
S11301C01B0178949F918F910F900FBE0F901F90F9
S11301D018951F920F920FB60F921124CF92DF92AF
S11301E0EF92FF922F933F934F935F936F937F937D
S11301F08F939F93AF93BF93EF93FF9380910001ED
S1130200882309F45AC080918600909187009093C6
S1130210190180931801E1E8F0E080818F7B8083ED
S1130220609118017091190180E090E00E943D05F1
S113023020E030E040E85FE30E9430046B017C0181
S113024060911B0170911C0180E090E00E943D05CB
S113025020E030E040E857E40E94CB059B01AC016C
S1130260C701B6010E94300420E034E244E75BE4B5
S11302700E949C0420E030E04AE754E40E94CB054D
S113028060931401709315018093160190931701E4
S113029020911001309111014091120150911301EC
S11302A00E942F0460930A0170930B0180930C0148
S11302B090930D01109200016BC080918600909183
S11302C087009093190180931801E1E8F0E08081A0
S11302D080648083609118017091190180E090E03E
S11302E00E943D0520E030E040E85FE30E943004D6
S11302F06B017C0160911B0170911C0180E090E016
S11303000E943D0520E030E040E857E40E94CB0520
S11303109B01AC01C701B6010E94300420E034E225
S113032044E75BE40E949C0420E030E04AE754E4A4
S11303300E94CB0560931001709311018093120108
S113034090931301209114013091150140911601ED
S1130350509117010E942F046093060170930701C6
S1130360809308019093090181E0809300018091BA
S11303700F018F5F80930F01833051F481E08093EC
S11303801A0110920F01EFE6F0E080818F7D8083E7
S1130390FF91EF91BF91AF919F918F917F916F9159
S11303A05F914F913F912F91FF90EF90DF90CF900D
S11303B00F900FBE0F901F901895ECE7F0E080812E
S11303C080648083EAE7F0E08081816080838081BB
S11303D08260808380818460808380818068808360
S11303E00895A0EBB0E08C9181608C938C91826035
S11303F08C93E1EBF0E08081886080838C918F7E28
S11304008C938C9180628C9383E68093B30089E50E
S11304108093B40080818160808380818260808346
S11304208081846080830895E0E8F0E080818E7F9D
S1130430808380818D7F8083E1E8F0E08081877F05
S1130440808380818F7E8083AFE6B0E08C91816071
S11304508C9380B7846080BF8C9180628C93808100
S11304608F7B808380818160808308954F925F9227
S11304706F927F92AF92BF92CF92DF92EF92FF92F0
S11304800F931F93CF93DF93CDB7DEB72C970FB69F
S1130490F894DEBF0FBECDBF6D837E838F839887B4
S11304A029013A01E982FA820B831C83A601950192
S11304B06D8D7E8D8F8D98A10E942F0469877A8718
S11304C08B879C87A3019201C801B7010E942F0466
S11304D09B01AC0169857A858B859C850E949C046F
S11304E069837A838B839C83A30192016D817E81CE
S11304F08F8198850E942F049B01AC0169817A81C8
S11305008B819C810E94CB059B01AC01C601B50186
S11305100E9430042C960FB6F894DEBF0FBECDBFF8
S1130520DF91CF911F910F91FF90EF90DF90CF90CB
S1130530BF90AF907F906F905F904F900895ECE7DD
S1130540F0E09081907F90839081892B80838081DB
S113055080648083EAE7F0E0808180648083809116
S11305607A0086FDFCCF80917800909179000895FF
S11305709093C5008093C400E1ECF0E08081886032
S11305808083E2ECF0E0808186608083089590911E
S1130590C00095FFFCCF8093C6000895CF93DF93EE
S11305A0EC0103C00E94C702219688818111FACF11
S11305B0DF91CF910895CF93DF93CDB7DEB7C355C5
S11305C0D1090FB6F894DEBF0FBECDBF0E94DD0186
S11305D00E94F10187E690E00E94B8020E94140292
S11305E078948AB188608AB98AB18F7B8AB98AB1D2
S11305F08F778AB980E00E949F02BC01990F880B13
S1130600990B0E943F0560966CAF7DAF8EAF9FAF94
S1130610609781E00E949F02BC01990F880B990B9F
S11306200E943F0523E42F932BE12F931F921F92E7
S11306300F2EA12CB12CF0E7CF2EF1E4DF2EF02DFC
S1130640E12C10ECF12E0FE714E420E030E0A901D6
S11306500E9436020F900F900F900F902B013C01D7
S11306608FE38F9380E88F931F921F92A12CB12C5C
S11306706501A601950160966CAD7DAD8EAD9FAD13
S113068060970E9436020F900F900F900F906B01AD
S11306907C019B01AC01C301B2010E94CB054B015B
S11306A05C018E01035C1F4F23E04AE0C701B601E1
S11306B00E94380681E091E028968FAF2897C30105
S11306C0B2010E940E056093B300C501B4010E94FB
S11306D00E056093B40080911A01882309F4A6C022
S11306E060910601709107018091080190910901C0
S11306F020910A0130910B0140910C0150910D01A0
S11307000E9430049B01AC0160E070E080E89FE34C
S11307100E949C0460966CAF7DAF8EAF9FAF6097D4
S11307208090060190900701A0900801B090090103
S1130730609106017091070180910801909109016F
S113074020910A0130910B0140910C0150910D014F
S11307500E9430049B01AC01C501B4010E949C04B9
S113076064966CAF7DAF8EAF9FAF649720E030E0AE
S113077040E85FE3C301B2010E94300420E030E0AE
S113078040E854E40E94CB059B01AC0160E074E2B4
S113079084E79BE40E949C042B013C010F50110947
S11307A023E04AE060966CAD7DAD8EAD9FAD609761
S11307B00E94380618AEC8010E94CE0283E091E080
S11307C00E94CE020F50110923E04AE064966CADFA
S11307D07DAD8EAD9FAD64970E94380619A6C80101
S11307E00E94CE0283E091E00E94CE020F501109D4
S11307F023E04AE0C301B2010E9438061A8EC80100
S11308000E94CE0283E091E00E94CE020F501109B3
S113081023E04AE0C701B6010E9438061B86C801DE
S11308200E94CE0283E091E00E94CE0260910E010C
S113083070E080E090E00E943D058E010F5F1F4F45
S113084023E04AE00E9438061B862FEF83ED90E3F5
S1130850215080409040E1F700C00000CBCE5058BA
S1130860BB27AA270E9447040C9491050E94830584
S113087038F00E948A0520F039F49F3F19F426F4D9
S11308800C9480050EF4E095E7FB0C947A05E92FAF
S11308900E94A20558F3BA176207730784079507E5
S11308A020F079F4A6F50C94C4050EF4E0950B2E13
S11308B0BA2FA02D0B01B90190010C01CA01A001AE
S11308C01124FF27591B99F0593F50F4503E68F109
S11308D01A16F040A22F232F342F4427585FF3CF4A
S11308E0469537952795A795F0405395C9F77EF41B
S11308F01F16BA0B620B730B840BBAF09150A1F064
S1130900FF0FBB1F661F771F881FC2F70EC0BA0FE9
S1130910621F731F841F48F4879577956795B79571
S1130920F7959E3F08F0B0CF9395880F08F099276C
S1130930EE0F9795879508950E94B0040C94910545
S11309400E948A0558F00E94830540F029F45F3F15
S113095029F00C947A0551110C94C5050C9480056A
S11309600E94A20568F39923B1F3552391F3951BD3
S1130970550BBB27AA2762177307840738F09F5FBC
S11309805F4F220F331F441FAA1FA9F335D00E2E29
S11309903AF0E0E832D091505040E695001CCAF796
S11309A02BD0FE2F29D0660F771F881FBB1F261759
S11309B037074807AB07B0E809F0BB0B802DBF0130
S11309C0FF2793585F4F3AF09E3F510578F00C94FF
S11309D07A050C94C5055F3FE4F3983ED4F38695FD
S11309E077956795B795F7959F5FC9F7880F911D20
S11309F09695879597F90895E1E0660F771F881F0C
S1130A00BB1F621773078407BA0720F0621B730BBE
S1130A10840BBA0BEE1F88F7E09508950E94AA058F
S1130A2088F09F5798F0B92F9927B751B0F0E1F0AB
S1130A30660F771F881F991F1AF0BA95C9F714C05B
S1130A40B13091F00E94C405B1E008950C94C4053E
S1130A50672F782F8827B85F39F0B93FCCF3869594
S1130A6077956795B395D9F73EF4909580957095F1
S1130A7061957F4F8F4F9F4F0895E89409C097FB6E
S1130A803EF490958095709561957F4F8F4F9F4F61
S1130A909923A9F0F92F96E9BB279395F6958795A5
S1130AA077956795B795F111F8CFFAF4BB0F11F468
S1130AB060FF1BC06F5F7F4F8F4F9F4F16C088230F
S1130AC011F096E911C0772321F09EE8872F762F45
S1130AD005C0662371F096E8862F70E060E02AF086
S1130AE09A95660F771F881FDAF7880F9695879572
S1130AF097F9089597F99F6780E870E060E008959A
S1130B009FEF80EC089500240A9416161706180621
S1130B100906089500240A941216130614060506FD
S1130B200895092E0394000C11F4882352F0BB0F8E
S1130B3040F4BF2B11F460FF04C06F5F7F4F8F4FF1
S1130B409F4F089557FD9058440F551F59F05F3F2C
S1130B5071F04795880F97FB991F61F09F3F79F0DB
S1130B6087950895121613061406551FF2CF46955D
S1130B70F1DF08C0161617061806991FF1CF8695DF
S1130B807105610508940895E894BB2766277727C3
S1130B90CB0197F908950E94DE050C9491050E94FB
S1130BA0830538F00E948A0520F0952311F00C94F7
S1130BB07A050C94800511240C94C5050E94A205A5
S1130BC070F3959FC1F3950F50E0551F629FF0019C
S1130BD0729FBB27F00DB11D639FAA27F00DB11DB5
S1130BE0AA1F649F6627B00DA11D661F829F22273E
S1130BF0B00DA11D621F739FB00DA11D621F839FC5
S1130C00A00D611D221F749F3327A00D611D231F9A
S1130C10849F600D211D822F762F6A2F11249F57E8
S1130C2050409AF0F1F088234AF0EE0FFF1FBB1FEB
S1130C30661F771F881F91505040A9F79E3F5105AA
S1130C4080F00C947A050C94C5055F3FE4F3983E5C
S1130C50D4F3869577956795B795F795E7959F5F54
S1130C60C1F7FE2B880F911D9695879597F90895E6
S1130C70EF920F931F93CF93DF93E80147FD02C0D8
S1130C8034E001C034E1042E000C550B57FF03C0BF
S1130C90519541955109E32E022F242FAE010E9454
S1130CA05806CE01DF91CF911F910F91EF900895D7
S1130CB0A9E0B0E0EEE5F6E00C9490086A01122F8A
S1130CC0B02E2BE3201720F0FF24F394F00E02C083
S1130CD02CE3F22E0F2D27E0AE014F5F5F4F0E94F1
S1130CE0B207BC014981842F8970813031F0E1FC65
S1130CF006C0E0FE06C090E205C09DE203C09BE290
S1130D0001C090E05E2D507143FF3CC0911102C0C0
S1130D1083E001C084E0811718F4212F281B01C04F
S1130D2020E051110BC0F601822F30E2882319F024
S1130D3031938150FBCFC20ED11C20E0992329F0BE
S1130D40D6019C93F60131966F01C6010396E2FE2B
S1130D500AC03EE4D6013C9341E411964C931197AA
S1130D6012963C9306C03EE6F601308341E6418389
S1130D703283FC01322F40E2332309F442C0419311
S1130D803150FACF42FF44C0911102C083E001C048
S1130D9084E0811718F4212F281B01C020E0511191
S1130DA00BC0F601822F30E2882319F03193815071
S1130DB0FBCFC20ED11C20E0992329F0D6019C93CD
S1130DC0F60131966F01C6010396E2FE0BC039E4C9
S1130DD0D6013C933EE411963C93119736E4129667
S1130DE03C9307C039E6F60130833EE6318336E6AC
S1130DF03283FC01322F40E2332319F04193315006
S1130E00FBCFFC01E20FF11D10828EEF9FEFA6C015
S1130E1021E030E0911102C020E030E01616170600
S1130E201CF4FB01319602C0E1E0F0E02E0F3F1FFD
S1130E30BB2021F0EB2DF0E0319602C0E0E0F0E0C1
S1130E402E0F3F1FE12FF0E02E173F071CF4121B5B
S1130E50212F01C020E08E2D887159F4F601822FD4
S1130E6030E2882319F031938150FBCFC20ED11C9C
S1130E7020E0992329F0D6019C93F60131966F0165
S1130E8051110BC0F601822F90E3882319F091933E
S1130E908150FBCFC20ED11C20E00F2D060F9A818A
S1130EA0342F307144FF03C0913309F401501016FC
S1130EB024F4093018F008E001C001E0AB0177FF29
S1130EC002C040E050E0FB01E41BF50BA1E0B0E000
S1130ED0AC0FBD1FEA0FFB1F8EE2A82E4B01801A38
S1130EE091080B2D10E01195019511094F3FBFEFAB
S1130EF05B0721F4D601AC9211966D016417750756
S1130F002CF08416950614F4818101C080E34150CD
S1130F1051093196D60111967D014017510724F0ED
S1130F20D6018C936701E2CF6417750739F49633C1
S1130F3020F4953319F4311101C081E3F601808363
S1130F40F701822F90E2882319F091938150FBCF0F
S1130F50F701E20FF11D108280E090E02996ECE0A9
S1130F600C94AC08283008F027E03327DA01990FF5
S1130F70311D87FD916000966105710539F4326079
S1130F802E5F3D9330E32A95E1F708959F3F30F0BB
S1130F9080387105610509F03C5F3C5F3D939130F9
S1130FA008F08068911DDF93CF931F930F93FF92F6
S1130FB0EF92192F987F9695E92F96959695E90FBC
S1130FC0FF27EE53FF4F99273327EE24FF24A70171
S1130FD0E70105900894079428F4360FE71EF81EDD
S1130FE0491F511D660F771F881F991F0694A1F78B
S1130FF00590079428F4E70EF81E491F561FC11DDB
S1131000770F881F991F661F0694A1F70590079410
S113101028F4F80E491F561FC71FD11D880F991FAA
S1131020661F771F0694A1F70590079420F4490FD3
S1131030561FC71FD81F990F661F771F881F069456
S1131040A9F784911095177041F0D695C7955795D7
S11310504795F794E7941A95C1F7E8E6F0E06894A9
S11310601590159135916591959105907FE2739551
S1131070E118F10A430B560BC90BD009C0F7E10C78
S1131080F11E431F561FC91FD01D7EF4703311F487
S11310908A95E6CFE894015030F0080F0AF400274F
S11310A0021708F4202F2395022F7A3328F079E3CE
S11310B07D932A95E9F710C07D932A9589F60694C5
S11310C097956795379517951794E118F10A430B8F
S11310D0560BC90BD00998F023957E9173957A33FA
S11310E008F070E37C932013B8F77E9170617D93D0
S11310F030F0839571E37D9370E32A95E1F7112431
S1131100EF90FF900F911F91CF91DF91992787FD69
S1131110909508952F923F924F925F926F927F9293
S11311208F929F92AF92BF92CF92DF92EF92FF92F3
S11311300F931F93CF93DF93CDB7DEB7CA1BDB0B9F
S11311400FB6F894DEBF0FBECDBF09942A88398844
S113115048885F846E847D848C849B84AA84B9844B
S1131160C884DF80EE80FD800C811B81AA81B98157
S1131170CE0FD11D0FB6F894DEBF0FBECDBFED016B
S10911800895F894FFCF6E
S10911860100000D0A0047
S9030000FC
