:100000000C9434000C9446000C9446000C9446006A
:100010000C9446000C9446000C9446000C94460048
:100020000C9446000C9446000C9446000C94460038
:100030000C9446000C946D000C9446000C94460001
:100040000C9448000C9446000C9446000C94460016
:100050000C9446000C9446000C9446000C94460008
:100060000C9446000C94460011241FBECFEFD8E03C
:10007000DEBFCDBF21E0A0E0B1E001C01D92A830FD
:10008000B207E1F70E942D010C94E4020C940000E9
:100090001F920F920FB60F9211248F939F93AF93DD
:1000A000BF938091000190910101A0910201B09154
:1000B00003010197A109B109809300019093010107
:1000C000A0930201B0930301BF91AF919F918F91D3
:1000D0000F900FBE0F901F9018951F920F920FB6A2
:1000E0000F9211248F939F93AF93BF93809104013C
:1000F00090910501A0910601B09107010197A10916
:10010000B1098093040190930501A0930601B09377
:100110000701BF91AF919F918F910F900FBE0F90EC
:100120001F9018959093C5008093C400E1ECF0E017
:10013000808188608083E2ECF0E08081866080834B
:1001400008958F929F92AF92BF92CF92DF92EF92DB
:10015000FF921F93CF93DF934B015C01F89414B58A
:10016000D5B5EEE6F0E0C08114BC15BC10828081EC
:100170008160808320E030E040E85DE3C501B401A8
:100180000E9477020E94BA016B017C01609300011A
:1001900070930101809302019093030116BC78943F
:1001A00085B5816085BD8091000190910101A0918C
:1001B0000201B0910301892B8A2B8B2BA1F785B506
:1001C0008E7F85BD20E030E040E851E4C501B401F8
:1001D0000E9477024B015C019E2D8D2D7C2D6627A0
:1001E0000E94E9019B01AC01C501B4010E944D01CF
:1001F0000E94BA016115710581059105E9F06195CB
:1002000066BD81E090E0A0E0B0E0809300019093B3
:100210000101A0930201B093030185B5816085BD02
:100220008091000190910101A0910201B091030120
:10023000892B8A2B8B2BA1F7F89414BDD5BDC093C5
:100240006E00DF91CF911F91FF90EF90DF90CF90E4
:10025000BF90AF909F908F90089587E690E00E94A6
:10026000920084B1806184B98AB18F7E8AB98BB1E2
:1002700080618BB985B1806185B960E070E080EA0A
:1002800091E40E94A10085B18F7E85B960E070E0A5
:1002900080EA91E40E94A100EDCF5058BB27AA2725
:1002A0000E9465010C943D020E942F0238F00E94CA
:1002B000360220F039F49F3F19F426F40C942C02F6
:1002C0000EF4E095E7FB0C942602E92F0E944E0203
:1002D00058F3BA17620773078407950720F079F47B
:1002E000A6F50C9470020EF4E0950B2EBA2FA02DFB
:1002F0000B01B90190010C01CA01A0011124FF27D3
:10030000591B99F0593F50F4503E68F11A16F040CD
:10031000A22F232F342F4427585FF3CF46953795CC
:100320002795A795F0405395C9F77EF41F16BA0B91
:10033000620B730B840BBAF09150A1F0FF0FBB1F3F
:10034000661F771F881FC2F70EC0BA0F621F731F88
:10035000841F48F4879577956795B795F7959E3FE5
:1003600008F0B0CF9395880F08F09927EE0F979576
:10037000879508950E94560288F09F5798F0B92FEC
:100380009927B751B0F0E1F0660F771F881F991FCA
:100390001AF0BA95C9F714C0B13091F00E947002FA
:1003A000B1E008950C947002672F782F8827B85F0A
:1003B00039F0B93FCCF3869577956795B395D9F722
:1003C0003EF490958095709561957F4F8F4F9F4F2C
:1003D0000895E89409C097FB3EF490958095709538
:1003E00061957F4F8F4F9F4F9923A9F0F92F96E981
:1003F000BB279395F695879577956795B795F111F6
:10040000F8CFFAF4BB0F11F460FF1BC06F5F7F4F92
:100410008F4F9F4F16C0882311F096E911C07723A4
:1004200021F09EE8872F762F05C0662371F096E8AD
:10043000862F70E060E02AF09A95660F771F881F7C
:10044000DAF7880F9695879597F9089597F99F673A
:1004500080E870E060E008959FEF80EC089500244C
:100460000A941616170618060906089500240A9419
:1004700012161306140605060895092E0394000C9F
:1004800011F4882352F0BB0F40F4BF2B11F460FF2E
:1004900004C06F5F7F4F8F4F9F4F089557FD905857
:1004A000440F551F59F05F3F71F04795880F97FB38
:1004B000991F61F09F3F79F08795089512161306F2
:1004C0001406551FF2CF4695F1DF08C01616170621
:1004D0001806991FF1CF8695710561050894089556
:1004E000E894BB2766277727CB0197F908950E94E8
:1004F0008A020C943D020E942F0238F00E943602BC
:1005000020F0952311F00C9426020C942C02112457
:100510000C9471020E944E0270F3959FC1F3950FE7
:1005200050E0551F629FF001729FBB27F00DB11D77
:10053000639FAA27F00DB11DAA1F649F6627B00D07
:10054000A11D661F829F2227B00DA11D621F739FF0
:10055000B00DA11D621F839FA00D611D221F749FFE
:100560003327A00D611D231F849F600D211D822F45
:10057000762F6A2F11249F5750409AF0F1F088236C
:100580004AF0EE0FFF1FBB1F661F771F881F915099
:100590005040A9F79E3F510580F00C9426020C9420
:1005A00071025F3FE4F3983ED4F3869577956795A3
:1005B000B795F795E7959F5FC1F7FE2B880F911DC3
:0C05C0009695879597F90895F894FFCF61
:00000001FF
