:100000000C9434000C943E000C943E000C943E0082
:100010000C943E000C943E000C943E000C943E0068
:100020000C943E000C943E000C943E000C943E0058
:100030000C943E000C943E000C943E000C943E0048
:100040000C943E000C943E000C943E000C943E0038
:100050000C943E000C943E000C943E000C943E0028
:100060000C943E000C943E0011241FBECFEFD8E04C
:10007000DEBFCDBF0E9440000C9462000C940000D3
:100080008FEF8AB9A0EBB0E08C9181608C938C915A
:1000900082608C93E1EBF0E08081886080838C91BA
:1000A00080628C938CE98093B3008EE48093B400DB
:1000B0008081816080838081826080838081846090
:0800C0008083FFCFF894FFCF0D
:00000001FF
