S00D00004C616220352E73726563B3
S11300000C9434000C943E000C943E000C943E007E
S11300100C943E000C943E000C943E000C943E0064
S11300200C943E000C943E000C943E000C943E0054
S11300300C943E000C943E000C943E000C943E0044
S11300400C943E000C943E000C943E000C943E0034
S11300500C943E000C943E000C943E000C943E0024
S11300600C943E000C943E0011241FBECFEFD8E048
S1130070DEBFCDBF0E9440000C945F000C940000D2
S113008087E690E09093C5008093C400E1ECF0E033
S1130090808188618083E2ECF0E0808186608083E7
S11300A08091C0008823E4F79091C6008091C0003D
S11300B085FFFCCF81E0890F8093C600F1CFF894CF
S10500C0FFCF6C
S9030000FC
