S01400004C61622031312044485431312E737265631D
S11300000C9434000C9449000C9449000C9449005D
S11300100C9449000C9449000C9449000C94490038
S11300200C9449000C9449000C9449000C94490028
S11300300C9449000C9449000C9449000C94490018
S11300400C9449000C9449000C9449000C94490008
S11300500C9449000C9449000C9449000C944900F8
S11300600C9449000C94490011241FBECFEFD8E032
S1130070DEBFCDBF11E0A0E0B1E0EAEAF2E002C0E9
S113008005900D92AC31B107D9F70E9488000C9409
S113009053010C94000020E030E080E012C04C9B3F
S11300A0FECF9AE99A95F1F700C04C9B05C090E009
S11300B0880F991F816001C0880F4C99FECF2F5F74
S11300C03F4F283031055CF308959093C500809329
S11300D0C400E1ECF0E0808188608083E2ECF0E031
S11300E080818660808308959091C00095FFFCCF45
S11300F08093C6000895CF93DF93EC0103C00E9460
S11301007400219688818111FACFDF91CF910895EF
S1130110CF93DF93CDB7DEB729970FB6F894DEBF40
S11301200FBECDBF87E690E00E9465008FEF8AB9CD
S11301308BB18F7E8BB92FE78DEE90E021508040FC
S11301409040E1F700C000008BB180618BB925EDD0
S11301502A95F1F700001AB84C99FECF4C9BFECFBC
S11301604C99FECF0E944B00A82E0E944B00C82E33
S11301700E944B00E82E0E944B00082F0E944B0067
S1130180B12CD12CF12C10E080E091E00E947B0096
S11301904AE0BE016F5F7F4FC5010E941E011986B0
S11301A0CE0101960E947B0089E091E00E947B00D1
S11301B04AE0BE016F5F7F4FC6010E941E0119868F
S11301C0CE0101960E947B0088E091E00E947B00B2
S11301D08BE091E00E947B008EE091E00E947B0026
S11301E04AE0BE016F5F7F4FC7010E941E011E825D
S11301F0CE0101960E947B0089E091E00E947B0081
S11302004AE0BE016F5F7F4FC8010E941E011E823B
S1130210CE0101960E947B0088E191E00E947B0060
S11302208BE091E00E947B008FEF97EA21E68150FA
S113023090402040E1F700C0000078CFBB274A304F
S113024031F4992322F4BDE2909581959F4F0C944B
S11302502A01BB27FB015527AA27880F991FAA1F2C
S1130260A41710F0A41B83955051B9F7A05DAA33CD
S113027008F0A95DA193009779F7B111B193119298
S1130280CB010C944301DC01FC01672F71917723AE
S1130290E1F7329704C07C916D9370836291AE173D
S10D02A0BF07C8F30895F894FFCFD8
S11302AA52482069733A2000252E000D0A0054652D
S10F02BA6D702069733A200020432E0070
S9030000FC
