:100000000C9434000C9446000C9446000C9446006A
:100010000C9446000C9446000C9446000C94460048
:100020000C9446000C9446000C9446000C94460038
:100030000C9446000C946D000C9446000C94460001
:100040000C9448000C9446000C9446000C94460016
:100050000C9446000C9446000C9446000C94460008
:100060000C9446000C94460011241FBECFEFD8E03C
:10007000DEBFCDBF21E0A0E0B1E001C01D92A830FD
:10008000B207E1F70E94A1000C94AF000C940000AD
:100090001F920F920FB60F9211248F939F93AF93DD
:1000A000BF938091000190910101A0910201B09154
:1000B00003010197A109B109809300019093010107
:1000C000A0930201B0930301BF91AF919F918F91D3
:1000D0000F900FBE0F901F9018951F920F920FB6A2
:1000E0000F9211248F939F93AF93BF93809104013C
:1000F00090910501A0910601B09107010197A10916
:10010000B1098093040190930501A0930601B09377
:100110000701BF91AF919F918F910F900FBE0F90EC
:100120001F9018959093C5008093C400E1ECF0E017
:10013000808188608083E2ECF0E08081866080834B
:10014000089587E690E00E9492008AB180618AB9A2
:100150008AB18F7D8AB98BB180628BB9FFCFF89459
:02016000FFCFCF
:00000001FF
