S01400005765656B3650726F6A6563742E7372656377
S11300000C9434000C9446000C9446000C94460066
S11300100C9446000C9446000C9446000C94460044
S11300200C9446000C9446000C9446000C94460034
S11300300C9446000C9412010C9437010C94460065
S11300400C94ED000C9446000C9446000C9446006D
S11300500C9446000C9446000C9446000C94460004
S11300600C9446000C94460011241FBECFEFD8E038
S1130070DEBFCDBF21E0A0E0B1E001C01D92AC30F5
S1130080B207E1F70E94A7010C9468050C940000E4
S11300908F929F92AF92BF92DF92EF92FF920F9353
S11300A01F93CF93DF93E4B4F5B4CEE6D0E0088198
S11300B01FB720E030E040E851E40E94FB0420E058
S11300C030E040E85BE30E94FB044B015C010E94CA
S11300D015046093000170930101809302019093D1
S11300E003010E9444049B01AC01C501B4010E94B8
S11300F031034B015C019B01AC0160E070E080E8DE
S11301009FE30E94310320E030E040E853E40E9482
S1130110FB040E941504D62E88818160888314BC58
S113012015BC8091000190910101A0910201B09150
S11301300301892B8A2B8B2BA9F016BC789485B5E7
S1130140816085BD8091000190910101A09102011F
S1130150B0910301892B8A2B8B2BA1F785B58E7F58
S113016085BDF89420E030E0A901C501B4010E94E6
S1130170F60418160CF5D6BC81E090E0A0E0B0E0DF
S11301808093000190930101A0930201B0930301B5
S1130190789485B5816085BD8091000190910101BD
S11301A0A0910201B0910301892B8A2B8B2BA1F71B
S11301B085B58E7F85BDF894E4BCF5BC00936E00D4
S11301C01FBFDF91CF911F910F91FF90EF90DF90B0
S11301D0BF90AF909F908F9008951F920F920FB68B
S11301E00F9211248F939F93AF93BF93809100013B
S11301F090910101A0910201B09103010197A1091D
S1130200B1098093000190930101A0930201B0937E
S11302100301BF91AF919F918F910F900FBE0F90EB
S11302201F9018951F920F920FB60F9211248F935F
S11302309F93AF93BF938091040190910501A09186
S11302400601B09107010197A109B1098093040146
S113025090930501A0930601B0930701BF91AF915C
S11302609F918F910F900FBE0F901F9018951F9222
S11302700F920FB60F9211248F939F93AF93BF9356
S11302808091080190910901A0910A01B0910B019C
S11302900197A109B1098093080190930901A093E2
S11302A00A01B0930B01BF91AF919F918F910F9071
S11302B00FBE0F901F901895CF92DF92EF92FF928E
S11302C065E070E084E090E00E946E026B017C01C6
S11302D020E030E046E153E40E949E03181694F0B7
S11302E020E030E0A901C701B6010E94F604181607
S11302F04CF420E030E046E153E4C701B6010E942B
S1130300A30320C020E030E046E153E4C701B60176
S11303100E94F604181674F420E030E046E953E431
S1130320C701B6010E949E03882344F060E070E098
S1130330CB0108C060E070E0CB0104C060E070E075
S113034080E89FE3FF90EF90DF90CF9008958AB10B
S11303508F7B8AB98AB18F778AB98AB180618AB969
S11303608AB18F7D8AB98BB180648BB98BB1806877
S11303708BB914B860E070E080E09FE30E9434021F
S1130380C1E089B186FB882780F9C81761F060E075
S113039070E48CE996E40E94480089B186FB8827C2
S11303A080F9C813C82F4F9912C060E070E48CE93B
S11303B096E40E94480089B186FB882780F9C81713
S11303C031F0811103C095B1C82F01C0C82F85B188
S11303D08F7D85B90E945C016B017C0120E030E0D7
S11303E0A9010E94F604181664F620E030E040E803
S11303F05FE3C701B6010E949E0318160CF4C1CF37
S11304006DEC7CEC8CE49EE30E945C0220E034E220
S113041044E759E4C701B6010E94FB040E94480066
S11304200E946A020E945C016B017C0120E030E0C2
S1130430A9010E94F60418160CF0A3CF20E030E0C6
S113044040E85FE3C701B6010E949E0318160CF44E
S113045098CF20E034E244E759E4C701B6010E9492
S1130460FB040E9448008DCFCF93DF93E0EBF0E0D4
S1130470208121602083208122602083C1EBD0E091
S11304802881286028832081206220832DE82093FE
S1130490B30020E030E04DE053E40E94FB040E94EE
S11304A015046093B40088818260888388818460A5
S11304B08883DF91CF91089520E030E04DE053E44C
S11304C00E94FB040E9415046093B4008AB1886002
S11304D08AB908958AB1877F8AB908958F929F92C5
S11304E0AF92BF92CF92DF92EF92FF920F931F933E
S11304F0CF93DF93C62FEFE6F0E00081A1E8B0E0F0
S1130500EC901FB71C9210821FBE90819160908363
S1130510789446E050E060E070E04093040150932A
S113052005016093060170930701109285001092F3
S113053084004BB121E030E0B90102C0660F771F9F
S11305408A95E2F7CB01F62EF094942F9F219BB964
S11305509BB1892B8BB960E070E080E391E40E9449
S113056048008BB1F822FBB889B190E00C2E02C090
S1130570959587950A94E2F780FFF6CF7894E1E8A1
S1130580F0E0808181608083809104019091050175
S1130590A0910601B0910701892B8A2B8B2B51F076
S11305A089B190E00C2E02C0959587950A94E2F7E4
S11305B080FDEACFC1E8D0E088818E7F8883C09037
S11305C08400D09085008090040190900501A09053
S11305D00601B090070186E090E0A0E0B0E0BC0125
S11305E0CD01681979098A099B090E94440420E015
S11305F030E040E857E40E94FB044B015C01B60183
S113060080E090E00E944404A50194010E9432031A
S113061020E034E244E75BE40E94A30320E030E8F6
S11306204BEA53E40E94FB0420E030E040E05FE347
S11306300E94FB0420E030E048EC52E40E94FB04FA
S113064000936F001FBFE882DF91CF911F910F913C
S1130650FF90EF90DF90CF90BF90AF909F908F90DE
S113066008955058BB27AA270E9449030C94BC0440
S11306700E94AE0438F00E94B50420F039F49F3F84
S113068019F426F40C94AB040EF4E095E7FB0C94F7
S1130690A504E92F0E94CD0458F3BA176207730723
S11306A08407950720F079F4A6F50C94EF040EF472
S11306B0E0950B2EBA2FA02D0B01B90190010C016E
S11306C0CA01A0011124FF27591B99F0593F50F486
S11306D0503E68F11A16F040A22F232F342F4427DE
S11306E0585FF3CF469537952795A795F0405395D6
S11306F0C9F77EF41F16BA0B620B730B840BBAF0A6
S11307009150A1F0FF0FBB1F661F771F881FC2F710
S11307100EC0BA0F621F731F841F48F48795779524
S11307206795B795F7959E3F08F0B0CF9395880FDE
S113073008F09927EE0F9795879508950E948104F4
S113074008F481E008950E94B7030C94BC040E944D
S1130750B50458F00E94AE0440F029F45F3F29F03C
S11307600C94A50451110C94F0040C94AB040E9455
S1130770CD0468F39923B1F3552391F3951B550BDD
S1130780BB27AA2762177307840738F09F5F5F4F60
S1130790220F331F441FAA1FA9F335D00E2E3AF09F
S11307A0E0E832D091505040E695001CCAF72BD0B7
S11307B0FE2F29D0660F771F881FBB1F2617370708
S11307C04807AB07B0E809F0BB0B802DBF01FF273A
S11307D093585F4F3AF09E3F510578F00C94A5046E
S11307E00C94F0045F3FE4F3983ED4F38695779538
S11307F06795B795F7959F5FC9F7880F911D9695F3
S1130800879597F90895E1E0660F771F881FBB1F4E
S1130810621773078407BA0720F0621B730B840BFB
S1130820BA0BEE1F88F7E09508950E94D50488F06E
S11308309F5798F0B92F9927B751B0F0E1F0660FA0
S1130840771F881F991F1AF0BA95C9F714C0B130E1
S113085091F00E94EF04B1E008950C94EF04672F27
S1130860782F8827B85F39F0B93FCCF38695779510
S11308706795B395D9F73EF49095809570956195F9
S11308807F4F8F4F9F4F0895E89409C097FB3EF424
S113089090958095709561957F4F8F4F9F4F9923C9
S11308A0A9F0F92F96E9BB279395F6958795779547
S11308B06795B795F111F8CFFAF4BB0F11F460FF07
S11308C01BC06F5F7F4F8F4F9F4F16C0882311F05F
S11308D096E911C0772321F09EE8872F762F05C073
S11308E0662371F096E8862F70E060E02AF09A950E
S11308F0660F771F881FDAF7880F9695879597F903
S11309000895990F0008550FAA0BE0E8FEEF16169C
S11309101706E807F907C0F012161306E407F507EF
S113092098F0621B730B840B950B39F40A2661F063
S1130930232B242B252B21F408950A2609F4A14006
S1130940A6958FEF811D811D089597F99F6780E813
S113095070E060E008959FEF80EC089500240A940D
S11309601616170618060906089500240A94121686
S11309701306140605060895092E0394000C11F4B9
S1130980882352F0BB0F40F4BF2B11F460FF04C066
S11309906F5F7F4F8F4F9F4F089557FD9058440FBF
S11309A0551F59F05F3F71F04795880F97FB991FCA
S11309B061F09F3F79F08795089512161306140687
S11309C0551FF2CF4695F1DF08C016161706180614
S11309D0991FF1CF86957105610508940895E894EF
S11309E0BB2766277727CB0197F908950E948104D6
S11309F008F48FEF08950E940E050C94BC040E9425
S1130A00AE0438F00E94B50420F0952311F00C9444
S1130A10A5040C94AB0411240C94F0040E94CD049E
S1130A2070F3959FC1F3950F50E0551F629FF0013D
S1130A30729FBB27F00DB11D639FAA27F00DB11D56
S1130A40AA1F649F6627B00DA11D661F829F2227DF
S1130A50B00DA11D621F739FB00DA11D621F839F66
S1130A60A00D611D221F749F3327A00D611D231F3C
S1130A70849F600D211D822F762F6A2F11249F578A
S1130A8050409AF0F1F088234AF0EE0FFF1FBB1F8D
S1130A90661F771F881F91505040A9F79E3F51054C
S1130AA080F00C94A5040C94F0045F3FE4F3983EAA
S1130AB0D4F3869577956795B795F795E7959F5FF6
S1130AC0C1F7FE2B880F911D9695879597F9089588
S1070AD0F894FFCFC4
S9030000FC
