:100000000C9434000C9449000C9449000C94490061
:100010000C9449000C9449000C9449000C9449003C
:100020000C9449000C9449000C9449000C9449002C
:100030000C9449000C9449000C9449000C9449001C
:100040000C9449000C9449000C9449000C9449000C
:100050000C9449000C9449000C9449000C944900FC
:100060000C9449000C94490011241FBECFEFD8E036
:10007000DEBFCDBF11E0A0E0B1E0EEEAF1E002C0EA
:1000800005900D92AA30B107D9F70E94A1000C94F7
:10009000D5000C94000088E08093B800ECEBF0E011
:1000A000808184608083089587E690E09093C50006
:1000B0008093C40088E98093C10086E08093C200E9
:1000C00008959091C00095FFFCCF8093C6000895DD
:1000D000CF93DF93EC0103C00E94610021968881D9
:1000E0008111FACFDF91CF9108958091C0008823CC
:1000F000E4F78091C60008950F931F93CF93DF9389
:100100008C01D62F0E947500C0E007C0F801EC0FEB
:10011000F11D8083CF5F0E9475008A3049F04C2F1B
:1001200050E02D2F30E0215031094217530774F36E
:10013000F801EC0FF11D1082DF91CF911F910F910B
:100140000895CF93DF93CDB7DEB7C456D1090FB66C
:10015000F894DEBF0FBECDBF0E944B000E9454003A
:10016000789480E091E00E9468000F2EF2E3FF2E69
:10017000F02D8E010D5C1F4FF8018F2D11928A9585
:10018000E9F762E3C8010E947C00C8010E94680090
:1001900085E091E00E946800CE010196FC01119279
:0E01A000FA94E9F70E946800DCCFF894FFCFD4
:0A01AE0054783A200052783A2000FD
:00000001FF
