:100000000C94DE000C94FB000C94FB000C94FB00A1
:100010000C94FB000C94FB000C94FB000C94FB0074
:100020000C94FB000C94FB000C94FB000C94FB0064
:100030000C94FB000C94FB000C94FB000C94FB0054
:100040000C94FB000C94FB000C94FB000C94FB0044
:100050000C94FB000C94FB000C94FB000C94FB0034
:100060000C94FB000C94FB0008000000BE92244995
:10007000123EABAAAA2ABECDCCCC4C3E00000080DA
:10008000BEABAAAAAA3E00000000BF000000803F4D
:100090000000000000084178D3BB4387D1133D190D
:1000A0000E3CC3BD4282AD2B3E68EC8276BED98F3A
:1000B000E1A93E4C80EFFFBE01C4FF7F3F0000007E
:1000C000000000407A10F35A00A0724E1809001088
:1000D000A5D4E80000E87648170000E40B540200BD
:1000E00000CA9A3B000000E1F505000080969800E8
:1000F000000040420F000000A08601000000102711
:1001000000000000E80300000000640000000000A0
:100110000A00000000000100000000002C76D888D2
:10012000DC674F0823DFC1DFAE59E1B1B796E5E3E5
:10013000E453C63AE651997696E8E6C28426EB89FE
:100140008C9B62ED407C6FFCEFBC9C9F40F2BAA59B
:100150006FA5F490055A2AF75C936B6CF9676DC133
:100160001BFCE0E40D47FEF520E6B500D0ED902E37
:100170000300943577050080841E080000204E0A95
:10018000000000C80C333333330F986E12831141D3
:10019000EF8D2114893BE65516CFFEE6DB18D1849E
:1001A0004B381BF77C1D901DA4BBE42420328472C5
:1001B0005E228100C9F124ECA1E53D2711241FBE78
:1001C000CFEFD8E0DEBFCDBF11E0A0E0B1E0E4E5C5
:1001D000FDE002C005900D92A630B107D9F721E0ED
:1001E000A6E0B1E001C01D92A830B207E1F70E947D
:1001F00045010C94A8060C9400009093C5008093D0
:10020000C400E1ECF0E0808188608083E2ECF0E003
:1002100080818660808308959091C00095FFFCCF17
:100220008093C6000895CF93DF93EC0103C00E9432
:100230000C01219688818111FACFDF91CF91089529
:10024000ECE7F0E0808180648083EAE7F0E0808181
:1002500081608083808182608083808184608083EC
:10026000808180628083ABE7B0E08C918E7F8C933D
:100270008C918D7F8C938C918B7F8C938081806807
:1002800080838081806480830895CF93DF93CDB78E
:10029000DEB72F970FB6F894DEBF0FBECDBF87E64F
:1002A00090E00E94FD000E94200180917A0084FF6E
:1002B000FCCFEAE7F0E08081806180836091780084
:1002C00070917900709307016093060180E090E0DF
:1002D0000E949F029B01AC0160E070EC8FE794E408
:1002E0000E942D0220E030E040E85FE30E94C00160
:1002F00020E030E44CE156E40E947D030E94350387
:100300006B017C0129E537E44CEB53E30E947D034C
:100310009B01AC01C701B6010E947D0323E73FE7C3
:1003200045E759E30E94C1019B01AC01C701B60139
:100330000E947D032BEE3FEF43E95AE30E94C10187
:100340009B01AC0160E070E080E89FE30E942D0219
:1003500023E333E948E853E40E94C0018E010F5FB4
:100360001F4F23E04AE00E941F0480E091E08B874A
:10037000C8010E94130182E091E00E94130195CF11
:100380005058BB27AA270E94D8010C94F3020E9460
:10039000E50238F00E94EC0220F039F49F3F19F496
:1003A00026F40C94E2020EF4E095E7FB0C94DC02D8
:1003B000E92F0E94040358F3BA17620773078407F2
:1003C000950720F079F4A6F50C9426030EF4E09539
:1003D0000B2EBA2FA02D0B01B90190010C01CA01FF
:1003E000A0011124FF27591B99F0593F50F4503EAA
:1003F00068F11A16F040A22F232F342F4427585F9C
:10040000F3CF469537952795A795F0405395C9F7B3
:100410007EF41F16BA0B620B730B840BBAF091506B
:10042000A1F0FF0FBB1F661F771F881FC2F70EC00A
:10043000BA0F621F731F841F48F4879577956795DD
:10044000B795F7959E3F08F0B0CF9395880F08F0C9
:100450009927EE0F9795879508950E9441020C9475
:10046000F3020E94EC0258F00E94E50240F029F4E9
:100470005F3F29F00C94DC0251110C9427030C947B
:10048000E2020E94040368F39923B1F3552391F328
:10049000951B550BBB27AA2762177307840738F0F3
:1004A0009F5F5F4F220F331F441FAA1FA9F335D050
:1004B0000E2E3AF0E0E832D091505040E695001C04
:1004C000CAF72BD0FE2F29D0660F771F881FBB1FBE
:1004D000261737074807AB07B0E809F0BB0B802D9C
:1004E000BF01FF2793585F4F3AF09E3F510578F0C8
:1004F0000C94DC020C9427035F3FE4F3983ED4F3A2
:10050000869577956795B795F7959F5FC9F7880F9B
:10051000911D9695879597F90895E1E0660F771FED
:10052000881FBB1F621773078407BA0720F0621B7E
:10053000730B840BBA0BEE1F88F7E0950895E894CF
:1005400009C097FB3EF490958095709561957F4F1B
:100550008F4F9F4F9923A9F0F92F96E9BB279395C9
:10056000F695879577956795B795F111F8CFFAF4D9
:10057000BB0F11F460FF1BC06F5F7F4F8F4F9F4F0A
:1005800016C0882311F096E911C0772321F09EE868
:10059000872F762F05C0662371F096E8862F70E0CE
:1005A00060E02AF09A95660F771F881FDAF7880FA8
:1005B0009695879597F9089597F99F6780E870E079
:1005C00060E008959FEF80EC089500240A941616C9
:1005D000170618060906089500240A941216130631
:1005E000140605060895092E0394000C11F48823BF
:1005F00052F0BB0F40F4BF2B11F460FF04C06F5FDB
:100600007F4F8F4F9F4F089557FD9058440F551FB0
:1006100059F05F3F71F04795880F97FB991F61F084
:100620009F3F79F087950895121613061406551FFB
:10063000F2CF4695F1DF08C0161617061806991F67
:10064000F1CF86957105610508940895E894BB275C
:1006500066277727CB0197F9089516F00C94EA03E3
:100660000C94E20268940C94DC020E940C03A8F340
:100670009923C1F3AEF3DF93CF931F930F93FF92B0
:10068000C92FDD2788232AF02197660F771F881F3F
:10069000DAF720E030E040E85FEB9FE3883920F0B4
:1006A000803E38F021968F770E94C101E8E6F0E0A5
:1006B00004C00E94C101E5E9F0E00E94F8038B014B
:1006C000BE01EC01FB2E6F5771097595771F880BE2
:1006D000990B0E94A10228E132E741E35FE30E9407
:1006E0009003AF2D9801AE01FF900F911F91CF9114
:1006F000DF910E94D8010C94F3020E9490030C94A5
:10070000F3020E94E50238F00E94EC0220F09523EB
:1007100011F00C94DC020C94E20211240C942703D7
:100720000E94040370F3959FC1F3950F50E0551F8D
:10073000629FF001729FBB27F00DB11D639FAA2736
:10074000F00DB11DAA1F649F6627B00DA11D661F85
:10075000829F2227B00DA11D621F739FB00DA11DA6
:10076000621F839FA00D611D221F749F3327A00D60
:10077000611D231F849F600D211D822F762F6A2FFC
:1007800011249F5750409AF0F1F088234AF0EE0F61
:10079000FF1FBB1F661F771F881F91505040A9F78E
:1007A0009E3F510580F00C94DC020C9427035F3FC0
:1007B000E4F3983ED4F3869577956795B795F795CA
:1007C000E7959F5FC1F7FE2B880F911D9695879542
:1007D00097F908959F3F31F0915020F487957795D0
:1007E0006795B795880F911D9695879597F9089508
:1007F000DF93CF931F930F93FF92EF92DF927B01D2
:100800008C01689406C0DA2EEF010E949003FE016D
:10081000E894A5912591359145915591A6F3EF0165
:100820000E94D801FE019701A801DA9469F7DF90D0
:10083000EF90FF900F911F91CF91DF910895EF926C
:100840000F931F93CF93DF93E80147FD02C034E07D
:1008500001C034E1042E000C550B57FF03C0519525
:1008600041955109E32E022F242FAE010E943F042F
:10087000CE01DF91CF911F910F91EF900895A9E0E4
:10088000B0E0E5E4F4E00C9477066A01122FB02E94
:100890002BE3201720F0FF24F394F00E02C02CE38A
:1008A000F22E0F2D27E0AE014F5F5F4F0E9499059A
:1008B000BC014981842F8970813031F0E1FC06C090
:1008C000E0FE06C090E205C09DE203C09BE201C0CD
:1008D00090E05E2D507143FF3CC0911102C083E057
:1008E00001C084E0811718F4212F281B01C020E0EB
:1008F00051110BC0F601822F30E2882319F0319399
:100900008150FBCFC20ED11C20E0992329F0D601E3
:100910009C93F60131966F01C6010396E2FE0AC070
:100920003EE4D6013C9341E411964C931197129604
:100930003C9306C03EE6F601308341E641833283B4
:10094000FC01322F40E2332309F442C0419331507D
:10095000FACF42FF44C0911102C083E001C084E09D
:10096000811718F4212F281B01C020E051110BC062
:10097000F601822F30E2882319F031938150FBCFAA
:10098000C20ED11C20E0992329F0D6019C93F601D8
:1009900031966F01C6010396E2FE0BC039E4D60121
:1009A0003C933EE411963C93119736E412963C93A7
:1009B00007C039E6F60130833EE6318336E63283FE
:1009C000FC01322F40E2332319F041933150FBCF29
:1009D000FC01E20FF11D10828EEF9FEFA6C021E017
:1009E00030E0911102C020E030E0161617061CF42A
:1009F000FB01319602C0E1E0F0E02E0F3F1FBB206B
:100A000021F0EB2DF0E0319602C0E0E0F0E02E0F97
:100A10003F1FE12FF0E02E173F071CF4121B212F80
:100A200001C020E08E2D887159F4F601822F30E24A
:100A3000882319F031938150FBCFC20ED11C20E0E6
:100A4000992329F0D6019C93F60131966F0151113B
:100A50000BC0F601822F90E3882319F09193815007
:100A6000FBCFC20ED11C20E00F2D060F9A81342F30
:100A7000307144FF03C0913309F40150101624F47F
:100A8000093018F008E001C001E0AB0177FF02C0B7
:100A900040E050E0FB01E41BF50BA1E0B0E0AC0F3F
:100AA000BD1FEA0FFB1F8EE2A82E4B01801A910892
:100AB0000B2D10E01195019511094F3FBFEF5B071A
:100AC00021F4D601AC9211966D01641775072CF0D4
:100AD0008416950614F4818101C080E341505109C8
:100AE0003196D60111967D014017510724F0D601A9
:100AF0008C936701E2CF6417750739F4963320F4BD
:100B0000953319F4311101C081E3F6018083F701B7
:100B1000822F90E2882319F091938150FBCFF70147
:100B2000E20FF11D108280E090E02996ECE00C9439
:100B30009306283008F027E03327DA01990F311D9A
:100B400087FD916000966105710539F432602E5F72
:100B50003D9330E32A95E1F708959F3F30F08038C8
:100B60007105610509F03C5F3C5F3D93913008F0F1
:100B70008068911DDF93CF931F930F93FF92EF92A5
:100B8000192F987F9695E92F96959695E90FFF274F
:100B9000E45EFE4F99273327EE24FF24A701E701E7
:100BA00005900894079428F4360FE71EF81E491F95
:100BB000511D660F771F881F991F0694A1F7059096
:100BC000079428F4E70EF81E491F561FC11D770F22
:100BD000881F991F661F0694A1F70590079428F4B3
:100BE000F80E491F561FC71FD11D880F991F661F7A
:100BF000771F0694A1F70590079420F4490F561F1C
:100C0000C71FD81F990F661F771F881F0694A9F763
:100C100084911095177041F0D695C79557954795D3
:100C2000F794E7941A95C1F7E2ECF0E06894159018
:100C3000159135916591959105907FE27395E11835
:100C4000F10A430B560BC90BD009C0F7E10CF11E9A
:100C5000431F561FC91FD01D7EF4703311F48A95AF
:100C6000E6CFE894015030F0080F0AF4002702178D
:100C700008F4202F2395022F7A3328F079E37D930F
:100C80002A95E9F710C07D932A9589F606949795E1
:100C90006795379517951794E118F10A430B560B92
:100CA000C90BD00998F023957E9173957A3308F09B
:100CB00070E37C932013B8F77E9170617D9330F0E0
:100CC000839571E37D9370E32A95E1F71124EF900A
:100CD000FF900F911F91CF91DF91992787FD9095FC
:100CE00008952F923F924F925F926F927F928F92D0
:100CF0009F92AF92BF92CF92DF92EF92FF920F93AB
:100D00001F93CF93DF93CDB7DEB7CA1BDB0B0FB6B4
:100D1000F894DEBF0FBECDBF09942A883988488871
:100D20005F846E847D848C849B84AA84B984C88407
:100D3000DF80EE80FD800C811B81AA81B981CE0FFE
:100D4000D11D0FB6F894DEBF0FBECDBFED010895E3
:040D5000F894FFCF45
:060D540000000D0A000082
:00000001FF
