:100000000C94DE000C9416010C94FB000C94FB0085
:100010000C94FB000C94FB000C94FB000C94FB0074
:100020000C94FB000C94FB000C94FB000C94FB0064
:100030000C94FB000C94FB000C94FB000C94FB0054
:100040000C94FB000C94FB000C94FB000C94FB0044
:100050000C94FB000C94FD000C94FB000C94FB0032
:100060000C94FB000C94FB0008000000BE92244995
:10007000123EABAAAA2ABECDCCCC4C3E00000080DA
:10008000BEABAAAAAA3E00000000BF000000803F4D
:100090000000000000084178D3BB4387D1133D190D
:1000A0000E3CC3BD4282AD2B3E68EC8276BED98F3A
:1000B000E1A93E4C80EFFFBE01C4FF7F3F0000007E
:1000C000000000407A10F35A00A0724E1809001088
:1000D000A5D4E80000E87648170000E40B540200BD
:1000E00000CA9A3B000000E1F505000080969800E8
:1000F000000040420F000000A08601000000102711
:1001000000000000E80300000000640000000000A0
:100110000A00000000000100000000002C76D888D2
:10012000DC674F0823DFC1DFAE59E1B1B796E5E3E5
:10013000E453C63AE651997696E8E6C28426EB89FE
:100140008C9B62ED407C6FFCEFBC9C9F40F2BAA59B
:100150006FA5F490055A2AF75C936B6CF9676DC133
:100160001BFCE0E40D47FEF520E6B500D0ED902E37
:100170000300943577050080841E080000204E0A95
:10018000000000C80C333333330F986E12831141D3
:10019000EF8D2114893BE65516CFFEE6DB18D1849E
:1001A0004B381BF77C1D901DA4BBE42420328472C5
:1001B0005E228100C9F124ECA1E53D2711241FBE78
:1001C000CFEFD8E0DEBFCDBF11E0A0E0B1E0E4ECBE
:1001D000F0E102C005900D92AC32B107D9F721E0F1
:1001E000ACE2B1E001C01D92A033B207E1F70E947A
:1001F000A0020C9460080C9400001F920F920FB69E
:100200000F9211248F939F938091780090917900A1
:1002100090932F0180932E0181E080932C019F9178
:100220008F910F900FBE0F901F9018951F920F92F5
:100230000FB60F9211248F934A990AC080912D0115
:10024000882319F010922D0103C081E080932D01C5
:100250008F910F900FBE0F901F9018954F925F9245
:100260006F927F92AF92BF92CF92DF92EF92FF9206
:100270000F931F93CF93DF93CDB7DEB72C970FB6B5
:10028000F894DEBF0FBECDBF6D837E838F839887CA
:1002900029013A01E982FA820B831C83A6019501A8
:1002A0006D8D7E8D8F8D98A10E94140369877A874A
:1002B0008B879C87A3019201C801B7010E94140398
:1002C0009B01AC0169857A858B859C850E948103A1
:1002D00069837A838B839C83A30192016D817E81E4
:1002E0008F8198850E9414039B01AC0169817A81FA
:1002F0008B819C810E9400059B01AC01C601B50168
:100300000E9415032C960FB6F894DEBF0FBECDBF2A
:10031000DF91CF911F910F91FF90EF90DF90CF90E1
:10032000BF90AF907F906F905F904F9008959093A3
:10033000C5008093C400E1ECF0E080818860808398
:10034000E2ECF0E080818660808308959091C000A7
:1003500095FFFCCF8093C6000895CF93DF93EC0107
:1003600003C00E94A601219688818111FACFDF91F6
:10037000CF910895ECE7F0E0808180648083EAE724
:10038000F0E08081816080838081826080838081D1
:1003900084608083808180628083ABE7B0E08C9151
:1003A0008E7F8C938C918D7F8C938C918B7F8C9393
:1003B0008081886080838081806880838081806480
:1003C00080830895CF92DF92EF92FF920F931F9355
:1003D000CF93DF93CDB7DEB76E970FB6F894DEBF3D
:1003E0000FBECDBFF89410922C0180912E019091F8
:1003F0002F014AE0BE016F5F7F4F0E94C2051B863E
:1004000080E091E00E94AD01CE0101960E94AD0115
:1004100060912E0170912F0180E090E00E942204F3
:100420009B01AC0160E070EC8FE794E40E948103D3
:1004300020E030E040E85FE30E94140320E030E475
:100440004CE156E40E9400050E94B8046B017C0157
:1004500029E537E44CEB53E30E9400059B01AC0116
:10046000C701B6010E94000523E73FE745E759E3CE
:100470000E9415039B01AC01C701B6010E94000553
:100480002BEE3FEF43E95AE30E9415039B01AC01B9
:1004900060E070E080E89FE30E94810323E333E99A
:1004A00048E853E40E9414036B017C018E01005F55
:1004B0001F4F23E04AE00E94A2051A8E81E191E0DD
:1004C0000E94AD01C8010E94AD0189E291E00E9445
:1004D000AD017894C701B6016E960FB6F894DEBFF1
:1004E0000FBECDBFDF91CF911F910F91FF90EF9085
:1004F000DF90CF9008958FEF84B9A0E8B0E08C91A1
:1005000081608C938C9182608C93E1E8F0E0808133
:10051000886080838081806180838C9180628C93ED
:100520008FE19EE4909389008093880088E692E4AE
:1005300090938B0080938A008081826080830895ED
:100540000E94BA0187E690E00E9497010E947B0218
:100550008AB18B7F8AB98BB184608BB98DB381608E
:100560008DBB8DB38D7F8DBBE9E6F0E0808182602D
:10057000808378948EE488BD4BC08FEF84B97894E3
:10058000E1E8F0E080818260808380912C0181111C
:100590000E94E201789480912E0190912F01803980
:1005A000914068F080912E0190912F018935924001
:1005B00040F460912E0170912F01605903C060E0FA
:1005C00001C068EC70E080E090E00E9422042FE31C
:1005D0002F9320E82F931F921F92A12CB12C65011D
:1005E000E12CF12C08E413E4A60195010E942E01F0
:1005F0000F900F900F900F9020E03EE34CE956E4EF
:100600000E9400050E94F30370938B0060938A00A0
:1006100080912D01813009F4B0CFE1E8F0E08081D4
:100620008D7F808314B8F4CF5058BB27AA270E942F
:100630002C030C9476040E94680438F00E946F0426
:1006400020F039F49F3F19F426F40C9465040EF45D
:10065000E095E7FB0C945F04E92F0E94870458F3B0
:10066000BA17620773078407950720F079F4A6F597
:100670000C94A9040EF4E0950B2EBA2FA02D0B01BB
:10068000B90190010C01CA01A0011124FF27591BD7
:1006900099F0593F50F4503E68F11A16F040A22FDD
:1006A000232F342F4427585FF3CF4695379527954E
:1006B000A795F0405395C9F77EF41F16BA0B620B4D
:1006C000730B840BBAF09150A1F0FF0FBB1F661F94
:1006D000771F881FC2F70EC0BA0F621F731F841FD7
:1006E00048F4879577956795B795F7959E3F08F0FD
:1006F000B0CF9395880F08F09927EE0F97958795BF
:1007000008950E9495030C9476040E946F0458F09B
:100710000E94680440F029F45F3F29F00C945F04C4
:1007200051110C94AA040C9465040E94870468F388
:100730009923B1F3552391F3951B550BBB27AA279A
:1007400062177307840738F09F5F5F4F220F331FD4
:10075000441FAA1FA9F335D00E2E3AF0E0E832D09C
:1007600091505040E695001CCAF72BD0FE2F29D09F
:10077000660F771F881FBB1F261737074807AB0771
:10078000B0E809F0BB0B802DBF01FF2793585F4FE6
:100790003AF09E3F510578F00C945F040C94AA0443
:1007A0005F3FE4F3983ED4F3869577956795B795C8
:1007B000F7959F5FC9F7880F911D9695879597F9D3
:1007C0000895E1E0660F771F881FBB1F621773074C
:1007D0008407BA0720F0621B730B840BBA0BEE1F61
:1007E00088F7E09508950E948F0488F09F5798F04D
:1007F000B92F9927B751B0F0E1F0660F771F881F26
:10080000991F1AF0BA95C9F714C0B13091F00E943F
:10081000A904B1E008950C94A904672F782F8827C4
:10082000B85F39F0B93FCCF3869577956795B39566
:10083000D9F73EF490958095709561957F4F8F4FD5
:100840009F4F0895E89409C097FB3EF490958095DA
:10085000709561957F4F8F4F9F4F9923A9F0F92F86
:1008600096E9BB279395F695879577956795B79504
:10087000F111F8CFFAF4BB0F11F460FF1BC06F5FEA
:100880007F4F8F4F9F4F16C0882311F096E911C0FC
:10089000772321F09EE8872F762F05C0662371F01D
:1008A00096E8862F70E060E02AF09A95660F771F31
:1008B000881FDAF7880F9695879597F9089597F925
:1008C0009F6780E870E060E008959FEF80EC0895F6
:1008D00000240A941616170618060906089500241F
:1008E0000A9412161306140605060895092E039499
:1008F000000C11F4882352F0BB0F40F4BF2B11F40D
:1009000060FF04C06F5F7F4F8F4F9F4F089557FD6B
:100910009058440F551F59F05F3F71F04795880F6D
:1009200097FB991F61F09F3F79F087950895121604
:1009300013061406551FF2CF4695F1DF08C01616B0
:1009400017061806991FF1CF869571056105089461
:100950000895E894BB2766277727CB0197F9089578
:1009600016F00C946D050C94650468940C945F0467
:100970000E948F04A8F39923C1F3AEF3DF93CF93C2
:100980001F930F93FF92C92FDD2788232AF0219709
:10099000660F771F881FDAF720E030E040E85FEB52
:1009A0009FE3883920F0803E38F021968F770E94AF
:1009B0001503E8E6F0E004C00E941503E5E9F0E065
:1009C0000E947B058B01BE01EC01FB2E6F57710964
:1009D0007595771F880B990B0E94240428E132E754
:1009E00041E35FE30E941305AF2D9801AE01FF9034
:1009F0000F911F91CF91DF910E942C030C947604EC
:100A00000E9413050C9476040E94680438F00E943A
:100A10006F0420F0952311F00C945F040C9465048E
:100A200011240C94AA040E94870470F3959FC1F3CB
:100A3000950F50E0551F629FF001729FBB27F00D8C
:100A4000B11D639FAA27F00DB11DAA1F649F6627E1
:100A5000B00DA11D661F829F2227B00DA11D621F30
:100A6000739FB00DA11D621F839FA00D611D221FEA
:100A7000749F3327A00D611D231F849F600D211DCE
:100A8000822F762F6A2F11249F5750409AF0F1F051
:100A900088234AF0EE0FFF1FBB1F661F771F881FBA
:100AA00091505040A9F79E3F510580F00C945F048F
:100AB0000C94AA045F3FE4F3983ED4F386957795AF
:100AC0006795B795F795E7959F5FC1F7FE2B880F60
:100AD000911D9695879597F908959F3F31F0915014
:100AE00020F4879577956795B795880F911D969512
:100AF000879597F90895DF93CF931F930F93FF92F4
:100B0000EF92DF927B018C01689406C0DA2EEF0130
:100B10000E941305FE01E894A59125913591459118
:100B20005591A6F3EF010E942C03FE019701A80145
:100B3000DA9469F7DF90EF90FF900F911F91CF91BA
:100B4000DF910895EF920F931F93CF93DF93E80106
:100B500047FD02C034E001C034E1042E000C550B07
:100B600057FF03C0519541955109E32E022F242FC1
:100B7000AE010E94E705CE01DF91CF911F910F9149
:100B8000EF900895BB274A3031F4992322F4BDE257
:100B9000909581959F4F0C94CE05BB27FB0155275F
:100BA000AA27880F991FAA1FA41710F0A41B8395CA
:100BB0005051B9F7A05DAA3308F0A95DA193009741
:100BC00079F7B111B1931192CB010C941908A9E0F6
:100BD000B0E0EDEEF5E00C942F086A01122FB02E74
:100BE0002BE3201720F0FF24F394F00E02C02CE337
:100BF000F22E0F2D27E0AE014F5F5F4F0E9441079D
:100C0000BC014981842F8970813031F0E1FC06C03C
:100C1000E0FE06C090E205C09DE203C09BE201C079
:100C200090E05E2D507143FF3CC0911102C083E003
:100C300001C084E0811718F4212F281B01C020E097
:100C400051110BC0F601822F30E2882319F0319345
:100C50008150FBCFC20ED11C20E0992329F0D60190
:100C60009C93F60131966F01C6010396E2FE0AC01D
:100C70003EE4D6013C9341E411964C9311971296B1
:100C80003C9306C03EE6F601308341E64183328361
:100C9000FC01322F40E2332309F442C0419331502A
:100CA000FACF42FF44C0911102C083E001C084E04A
:100CB000811718F4212F281B01C020E051110BC00F
:100CC000F601822F30E2882319F031938150FBCF57
:100CD000C20ED11C20E0992329F0D6019C93F60185
:100CE00031966F01C6010396E2FE0BC039E4D601CE
:100CF0003C933EE411963C93119736E412963C9354
:100D000007C039E6F60130833EE6318336E63283AA
:100D1000FC01322F40E2332319F041933150FBCFD5
:100D2000FC01E20FF11D10828EEF9FEFA6C021E0C3
:100D300030E0911102C020E030E0161617061CF4D6
:100D4000FB01319602C0E1E0F0E02E0F3F1FBB2017
:100D500021F0EB2DF0E0319602C0E0E0F0E02E0F44
:100D60003F1FE12FF0E02E173F071CF4121B212F2D
:100D700001C020E08E2D887159F4F601822F30E2F7
:100D8000882319F031938150FBCFC20ED11C20E093
:100D9000992329F0D6019C93F60131966F015111E8
:100DA0000BC0F601822F90E3882319F091938150B4
:100DB000FBCFC20ED11C20E00F2D060F9A81342FDD
:100DC000307144FF03C0913309F40150101624F42C
:100DD000093018F008E001C001E0AB0177FF02C064
:100DE00040E050E0FB01E41BF50BA1E0B0E0AC0FEC
:100DF000BD1FEA0FFB1F8EE2A82E4B01801A91083F
:100E00000B2D10E01195019511094F3FBFEF5B07C6
:100E100021F4D601AC9211966D01641775072CF080
:100E20008416950614F4818101C080E34150510974
:100E30003196D60111967D014017510724F0D60155
:100E40008C936701E2CF6417750739F4963320F469
:100E5000953319F4311101C081E3F6018083F70164
:100E6000822F90E2882319F091938150FBCFF701F4
:100E7000E20FF11D108280E090E02996ECE00C94E6
:100E80004B08283008F027E03327DA01990F311D8D
:100E900087FD916000966105710539F432602E5F1F
:100EA0003D9330E32A95E1F708959F3F30F0803875
:100EB0007105610509F03C5F3C5F3D93913008F09E
:100EC0008068911DDF93CF931F930F93FF92EF9252
:100ED000192F987F9695E92F96959695E90FFF27FC
:100EE000E45EFE4F99273327EE24FF24A701E70194
:100EF00005900894079428F4360FE71EF81E491F42
:100F0000511D660F771F881F991F0694A1F7059042
:100F1000079428F4E70EF81E491F561FC11D770FCE
:100F2000881F991F661F0694A1F70590079428F45F
:100F3000F80E491F561FC71FD11D880F991F661F26
:100F4000771F0694A1F70590079420F4490F561FC8
:100F5000C71FD81F990F661F771F881F0694A9F710
:100F600084911095177041F0D695C7955795479580
:100F7000F794E7941A95C1F7E2ECF0E068941590C5
:100F8000159135916591959105907FE27395E118E2
:100F9000F10A430B560BC90BD009C0F7E10CF11E47
:100FA000431F561FC91FD01D7EF4703311F48A955C
:100FB000E6CFE894015030F0080F0AF4002702173A
:100FC00008F4202F2395022F7A3328F079E37D93BC
:100FD0002A95E9F710C07D932A9589F6069497958E
:100FE0006795379517951794E118F10A430B560B3F
:100FF000C90BD00998F023957E9173957A3308F048
:1010000070E37C932013B8F77E9170617D9330F08C
:10101000839571E37D9370E32A95E1F71124EF90B6
:10102000FF900F911F91CF91DF91992787FD9095A8
:101030000895DC01FC01672F71917723E1F7329766
:1010400004C07C916D9370836291AE17BF07C8F3A3
:1010500008952F923F924F925F926F927F928F925C
:101060009F92AF92BF92CF92DF92EF92FF920F9337
:101070001F93CF93DF93CDB7DEB7CA1BDB0B0FB641
:10108000F894DEBF0FBECDBF09942A8839884888FE
:101090005F846E847D848C849B84AA84B984C88494
:1010A000DF80EE80FD800C811B81AA81B981CE0F8B
:1010B000D11D0FB6F894DEBF0FBECDBFED01089570
:0410C000F894FFCFD2
:1010C4004144432072656164696E672069733A2004
:1010D400002E2054656D70657261747572652063AD
:0C10E400616C632069733A20000D0A0063
:00000001FF
